{
  "contractName": "CryptoBoys",
  "abi": [
    {
      "inputs": [],
      "stateMutability": "nonpayable",
      "type": "constructor"
    },
    {
      "anonymous": false,
      "inputs": [
        {
          "indexed": true,
          "internalType": "address",
          "name": "owner",
          "type": "address"
        },
        {
          "indexed": true,
          "internalType": "address",
          "name": "approved",
          "type": "address"
        },
        {
          "indexed": true,
          "internalType": "uint256",
          "name": "tokenId",
          "type": "uint256"
        }
      ],
      "name": "Approval",
      "type": "event"
    },
    {
      "anonymous": false,
      "inputs": [
        {
          "indexed": true,
          "internalType": "address",
          "name": "owner",
          "type": "address"
        },
        {
          "indexed": true,
          "internalType": "address",
          "name": "operator",
          "type": "address"
        },
        {
          "indexed": false,
          "internalType": "bool",
          "name": "approved",
          "type": "bool"
        }
      ],
      "name": "ApprovalForAll",
      "type": "event"
    },
    {
      "anonymous": false,
      "inputs": [
        {
          "indexed": true,
          "internalType": "address",
          "name": "from",
          "type": "address"
        },
        {
          "indexed": true,
          "internalType": "address",
          "name": "to",
          "type": "address"
        },
        {
          "indexed": true,
          "internalType": "uint256",
          "name": "tokenId",
          "type": "uint256"
        }
      ],
      "name": "Transfer",
      "type": "event"
    },
    {
      "inputs": [
        {
          "internalType": "uint256",
          "name": "",
          "type": "uint256"
        }
      ],
      "name": "allCryptoBoys",
      "outputs": [
        {
          "internalType": "uint256",
          "name": "tokenId",
          "type": "uint256"
        },
        {
          "internalType": "string",
          "name": "tokenName",
          "type": "string"
        },
        {
          "internalType": "string",
          "name": "tokenURI",
          "type": "string"
        },
        {
          "internalType": "address payable",
          "name": "mintedBy",
          "type": "address"
        },
        {
          "internalType": "address payable",
          "name": "currentOwner",
          "type": "address"
        },
        {
          "internalType": "address payable",
          "name": "previousOwner",
          "type": "address"
        },
        {
          "internalType": "uint256",
          "name": "price",
          "type": "uint256"
        },
        {
          "internalType": "uint256",
          "name": "numberOfTransfers",
          "type": "uint256"
        },
        {
          "internalType": "bool",
          "name": "forBidding",
          "type": "bool"
        },
        {
          "internalType": "uint256",
          "name": "biddingPrice",
          "type": "uint256"
        },
        {
          "internalType": "address payable",
          "name": "currentBidder",
          "type": "address"
        }
      ],
      "stateMutability": "view",
      "type": "function",
      "constant": true
    },
    {
      "inputs": [
        {
          "internalType": "address",
          "name": "to",
          "type": "address"
        },
        {
          "internalType": "uint256",
          "name": "tokenId",
          "type": "uint256"
        }
      ],
      "name": "approve",
      "outputs": [],
      "stateMutability": "nonpayable",
      "type": "function"
    },
    {
      "inputs": [
        {
          "internalType": "address",
          "name": "owner",
          "type": "address"
        }
      ],
      "name": "balanceOf",
      "outputs": [
        {
          "internalType": "uint256",
          "name": "",
          "type": "uint256"
        }
      ],
      "stateMutability": "view",
      "type": "function",
      "constant": true
    },
    {
      "inputs": [],
      "name": "baseURI",
      "outputs": [
        {
          "internalType": "string",
          "name": "",
          "type": "string"
        }
      ],
      "stateMutability": "view",
      "type": "function",
      "constant": true
    },
    {
      "inputs": [],
      "name": "collectionName",
      "outputs": [
        {
          "internalType": "string",
          "name": "",
          "type": "string"
        }
      ],
      "stateMutability": "view",
      "type": "function",
      "constant": true
    },
    {
      "inputs": [],
      "name": "collectionNameSymbol",
      "outputs": [
        {
          "internalType": "string",
          "name": "",
          "type": "string"
        }
      ],
      "stateMutability": "view",
      "type": "function",
      "constant": true
    },
    {
      "inputs": [
        {
          "internalType": "string",
          "name": "",
          "type": "string"
        }
      ],
      "name": "colorExists",
      "outputs": [
        {
          "internalType": "bool",
          "name": "",
          "type": "bool"
        }
      ],
      "stateMutability": "view",
      "type": "function",
      "constant": true
    },
    {
      "inputs": [],
      "name": "cryptoBoyCounter",
      "outputs": [
        {
          "internalType": "uint256",
          "name": "",
          "type": "uint256"
        }
      ],
      "stateMutability": "view",
      "type": "function",
      "constant": true
    },
    {
      "inputs": [
        {
          "internalType": "uint256",
          "name": "tokenId",
          "type": "uint256"
        }
      ],
      "name": "getApproved",
      "outputs": [
        {
          "internalType": "address",
          "name": "",
          "type": "address"
        }
      ],
      "stateMutability": "view",
      "type": "function",
      "constant": true
    },
    {
      "inputs": [
        {
          "internalType": "address",
          "name": "owner",
          "type": "address"
        },
        {
          "internalType": "address",
          "name": "operator",
          "type": "address"
        }
      ],
      "name": "isApprovedForAll",
      "outputs": [
        {
          "internalType": "bool",
          "name": "",
          "type": "bool"
        }
      ],
      "stateMutability": "view",
      "type": "function",
      "constant": true
    },
    {
      "inputs": [],
      "name": "name",
      "outputs": [
        {
          "internalType": "string",
          "name": "",
          "type": "string"
        }
      ],
      "stateMutability": "view",
      "type": "function",
      "constant": true
    },
    {
      "inputs": [
        {
          "internalType": "uint256",
          "name": "tokenId",
          "type": "uint256"
        }
      ],
      "name": "ownerOf",
      "outputs": [
        {
          "internalType": "address",
          "name": "",
          "type": "address"
        }
      ],
      "stateMutability": "view",
      "type": "function",
      "constant": true
    },
    {
      "inputs": [
        {
          "internalType": "address",
          "name": "from",
          "type": "address"
        },
        {
          "internalType": "address",
          "name": "to",
          "type": "address"
        },
        {
          "internalType": "uint256",
          "name": "tokenId",
          "type": "uint256"
        }
      ],
      "name": "safeTransferFrom",
      "outputs": [],
      "stateMutability": "nonpayable",
      "type": "function"
    },
    {
      "inputs": [
        {
          "internalType": "address",
          "name": "from",
          "type": "address"
        },
        {
          "internalType": "address",
          "name": "to",
          "type": "address"
        },
        {
          "internalType": "uint256",
          "name": "tokenId",
          "type": "uint256"
        },
        {
          "internalType": "bytes",
          "name": "_data",
          "type": "bytes"
        }
      ],
      "name": "safeTransferFrom",
      "outputs": [],
      "stateMutability": "nonpayable",
      "type": "function"
    },
    {
      "inputs": [
        {
          "internalType": "address",
          "name": "operator",
          "type": "address"
        },
        {
          "internalType": "bool",
          "name": "approved",
          "type": "bool"
        }
      ],
      "name": "setApprovalForAll",
      "outputs": [],
      "stateMutability": "nonpayable",
      "type": "function"
    },
    {
      "inputs": [
        {
          "internalType": "bytes4",
          "name": "interfaceId",
          "type": "bytes4"
        }
      ],
      "name": "supportsInterface",
      "outputs": [
        {
          "internalType": "bool",
          "name": "",
          "type": "bool"
        }
      ],
      "stateMutability": "view",
      "type": "function",
      "constant": true
    },
    {
      "inputs": [],
      "name": "symbol",
      "outputs": [
        {
          "internalType": "string",
          "name": "",
          "type": "string"
        }
      ],
      "stateMutability": "view",
      "type": "function",
      "constant": true
    },
    {
      "inputs": [
        {
          "internalType": "uint256",
          "name": "index",
          "type": "uint256"
        }
      ],
      "name": "tokenByIndex",
      "outputs": [
        {
          "internalType": "uint256",
          "name": "",
          "type": "uint256"
        }
      ],
      "stateMutability": "view",
      "type": "function",
      "constant": true
    },
    {
      "inputs": [
        {
          "internalType": "string",
          "name": "",
          "type": "string"
        }
      ],
      "name": "tokenNameExists",
      "outputs": [
        {
          "internalType": "bool",
          "name": "",
          "type": "bool"
        }
      ],
      "stateMutability": "view",
      "type": "function",
      "constant": true
    },
    {
      "inputs": [
        {
          "internalType": "address",
          "name": "owner",
          "type": "address"
        },
        {
          "internalType": "uint256",
          "name": "index",
          "type": "uint256"
        }
      ],
      "name": "tokenOfOwnerByIndex",
      "outputs": [
        {
          "internalType": "uint256",
          "name": "",
          "type": "uint256"
        }
      ],
      "stateMutability": "view",
      "type": "function",
      "constant": true
    },
    {
      "inputs": [
        {
          "internalType": "uint256",
          "name": "tokenId",
          "type": "uint256"
        }
      ],
      "name": "tokenURI",
      "outputs": [
        {
          "internalType": "string",
          "name": "",
          "type": "string"
        }
      ],
      "stateMutability": "view",
      "type": "function",
      "constant": true
    },
    {
      "inputs": [
        {
          "internalType": "string",
          "name": "",
          "type": "string"
        }
      ],
      "name": "tokenURIExists",
      "outputs": [
        {
          "internalType": "bool",
          "name": "",
          "type": "bool"
        }
      ],
      "stateMutability": "view",
      "type": "function",
      "constant": true
    },
    {
      "inputs": [],
      "name": "totalSupply",
      "outputs": [
        {
          "internalType": "uint256",
          "name": "",
          "type": "uint256"
        }
      ],
      "stateMutability": "view",
      "type": "function",
      "constant": true
    },
    {
      "inputs": [
        {
          "internalType": "address",
          "name": "from",
          "type": "address"
        },
        {
          "internalType": "address",
          "name": "to",
          "type": "address"
        },
        {
          "internalType": "uint256",
          "name": "tokenId",
          "type": "uint256"
        }
      ],
      "name": "transferFrom",
      "outputs": [],
      "stateMutability": "nonpayable",
      "type": "function"
    },
    {
      "inputs": [
        {
          "internalType": "string",
          "name": "_name",
          "type": "string"
        },
        {
          "internalType": "string",
          "name": "_tokenURI",
          "type": "string"
        },
        {
          "internalType": "uint256",
          "name": "_price",
          "type": "uint256"
        },
        {
          "internalType": "string[]",
          "name": "_colors",
          "type": "string[]"
        }
      ],
      "name": "mintCryptoBoy",
      "outputs": [],
      "stateMutability": "nonpayable",
      "type": "function"
    },
    {
      "inputs": [
        {
          "internalType": "uint256",
          "name": "_tokenId",
          "type": "uint256"
        }
      ],
      "name": "getTokenOwner",
      "outputs": [
        {
          "internalType": "address",
          "name": "",
          "type": "address"
        }
      ],
      "stateMutability": "view",
      "type": "function",
      "constant": true
    },
    {
      "inputs": [
        {
          "internalType": "uint256",
          "name": "_tokenId",
          "type": "uint256"
        }
      ],
      "name": "getTokenMetaData",
      "outputs": [
        {
          "internalType": "string",
          "name": "",
          "type": "string"
        }
      ],
      "stateMutability": "view",
      "type": "function",
      "constant": true
    },
    {
      "inputs": [],
      "name": "getNumberOfTokensMinted",
      "outputs": [
        {
          "internalType": "uint256",
          "name": "",
          "type": "uint256"
        }
      ],
      "stateMutability": "view",
      "type": "function",
      "constant": true
    },
    {
      "inputs": [
        {
          "internalType": "address",
          "name": "_owner",
          "type": "address"
        }
      ],
      "name": "getTotalNumberOfTokensOwnedByAnAddress",
      "outputs": [
        {
          "internalType": "uint256",
          "name": "",
          "type": "uint256"
        }
      ],
      "stateMutability": "view",
      "type": "function",
      "constant": true
    },
    {
      "inputs": [
        {
          "internalType": "uint256",
          "name": "_tokenId",
          "type": "uint256"
        }
      ],
      "name": "getTokenExists",
      "outputs": [
        {
          "internalType": "bool",
          "name": "",
          "type": "bool"
        }
      ],
      "stateMutability": "view",
      "type": "function",
      "constant": true
    },
    {
      "inputs": [
        {
          "internalType": "uint256",
          "name": "_tokenId",
          "type": "uint256"
        },
        {
          "internalType": "uint256",
          "name": "_newPrice",
          "type": "uint256"
        }
      ],
      "name": "changeTokenPrice",
      "outputs": [],
      "stateMutability": "nonpayable",
      "type": "function"
    },
    {
      "inputs": [
        {
          "internalType": "uint256",
          "name": "_tokenId",
          "type": "uint256"
        }
      ],
      "name": "toggleforBidding",
      "outputs": [],
      "stateMutability": "nonpayable",
      "type": "function"
    },
    {
      "inputs": [
        {
          "internalType": "uint256",
          "name": "_tokenId",
          "type": "uint256"
        },
        {
          "internalType": "uint256",
          "name": "_newPrice",
          "type": "uint256"
        }
      ],
      "name": "changeBidTokenPrice",
      "outputs": [],
      "stateMutability": "payable",
      "type": "function",
      "payable": true
    },
    {
      "inputs": [
        {
          "internalType": "uint256",
          "name": "_tokenId",
          "type": "uint256"
        }
      ],
      "name": "buyToken",
      "outputs": [],
      "stateMutability": "payable",
      "type": "function",
      "payable": true
    }
  ],
  "bytecode": "0x60806040523480156200001157600080fd5b506040518060400160405280601781526020017f43727970746f20536d696c7920436f6c6c656374696f6e0000000000000000008152506040518060400160405280600281526020017f4353000000000000000000000000000000000000000000000000000000000000815250620000966301ffc9a760e01b6200016860201b60201c565b8160069080519060200190620000ae929190620003bd565b508060079080519060200190620000c7929190620003bd565b50620000e06380ac58cd60e01b6200016860201b60201c565b620000f8635b5e139f60e01b6200016860201b60201c565b6200011063780e9d6360e01b6200016860201b60201c565b5050620001226200027160201b60201c565b600a908051906020019062000139929190620003bd565b506200014a6200031760201b60201c565b600b908051906020019062000161929190620003bd565b5062000473565b63ffffffff60e01b817bffffffffffffffffffffffffffffffffffffffffffffffffffffffff1916141562000205576040517f08c379a000000000000000000000000000000000000000000000000000000000815260040180806020018281038252601c8152602001807f4552433136353a20696e76616c696420696e746572666163652069640000000081525060200191505060405180910390fd5b6001600080837bffffffffffffffffffffffffffffffffffffffffffffffffffffffff19167bffffffffffffffffffffffffffffffffffffffffffffffffffffffff1916815260200190815260200160002060006101000a81548160ff02191690831515021790555050565b606060068054600181600116156101000203166002900480601f0160208091040260200160405190810160405280929190818152602001828054600181600116156101000203166002900480156200030d5780601f10620002e1576101008083540402835291602001916200030d565b820191906000526020600020905b815481529060010190602001808311620002ef57829003601f168201915b5050505050905090565b606060078054600181600116156101000203166002900480601f016020809104026020016040519081016040528092919081815260200182805460018160011615610100020316600290048015620003b35780601f106200038757610100808354040283529160200191620003b3565b820191906000526020600020905b8154815290600101906020018083116200039557829003601f168201915b5050505050905090565b828054600181600116156101000203166002900490600052602060002090601f016020900481019282620003f5576000855562000441565b82601f106200041057805160ff191683800117855562000441565b8280016001018555821562000441579182015b828111156200044057825182559160200191906001019062000423565b5b50905062000450919062000454565b5090565b5b808211156200046f57600081600090555060010162000455565b5090565b6154e880620004836000396000f3fe6080604052600436106101f95760003560e01c80636c0360eb1161010d578063a46b1fac116100a0578063c87b56dd1161006f578063c87b56dd146107b7578063cc151f3a146107f4578063e5326ab11461081f578063e985e9c51461084a578063fb37142014610887576101f9565b8063a46b1fac146106e9578063a5cd761f14610726578063b88d4fde14610763578063bffec2021461078c576101f9565b80638d44807c116100dc5780638d44807c1461062f57806395d89b411461066c5780639bfc5a5914610697578063a22cb465146106c0576101f9565b80636c0360eb146105805780636f9507f9146105ab578063702f23e2146105d657806370a08231146105f2576101f9565b80632f745c591161019057806344c0d7eb1161015f57806344c0d7eb146104595780634f6ccce7146104a057806362e8e8ac146104dd5780636352211e1461050657806367c623cf14610543576101f9565b80632f745c591461037957806342842e0e146103b657806343902850146103df57806343d32ae71461041c576101f9565b8063142687f3116101cc578063142687f3146102cc57806318160ddd1461030957806323b872dd146103345780632d296bf11461035d576101f9565b806301ffc9a7146101fe57806306fdde031461023b578063081812fc14610266578063095ea7b3146102a3575b600080fd5b34801561020a57600080fd5b5061022560048036038101906102209190614c4d565b6108b0565b6040516102329190614ee2565b60405180910390f35b34801561024757600080fd5b50610250610917565b60405161025d9190614efd565b60405180910390f35b34801561027257600080fd5b5061028d60048036038101906102889190614d67565b6109b9565b60405161029a9190614ec7565b60405180910390f35b3480156102af57600080fd5b506102ca60048036038101906102c59190614c11565b610a54565b005b3480156102d857600080fd5b506102f360048036038101906102ee9190614d67565b610b98565b6040516103009190614ee2565b60405180910390f35b34801561031557600080fd5b5061031e610baf565b60405161032b9190614f1f565b60405180910390f35b34801561034057600080fd5b5061035b60048036038101906103569190614b0b565b610bc0565b005b61037760048036038101906103729190614d67565b610c36565b005b34801561038557600080fd5b506103a0600480360381019061039b9190614c11565b611367565b6040516103ad9190614f1f565b60405180910390f35b3480156103c257600080fd5b506103dd60048036038101906103d89190614b0b565b6113c2565b005b3480156103eb57600080fd5b5061040660048036038101906104019190614aa6565b6113e2565b6040516104139190614f1f565b60405180910390f35b34801561042857600080fd5b50610443600480360381019061043e9190614c76565b6113f9565b6040516104509190614ee2565b60405180910390f35b34801561046557600080fd5b50610480600480360381019061047b9190614d67565b61142f565b6040516104979b9a99989796959493929190614f3a565b60405180910390f35b3480156104ac57600080fd5b506104c760048036038101906104c29190614d67565b611646565b6040516104d49190614f1f565b60405180910390f35b3480156104e957600080fd5b5061050460048036038101906104ff9190614d90565b611669565b005b34801561051257600080fd5b5061052d60048036038101906105289190614d67565b611bc4565b60405161053a9190614ec7565b60405180910390f35b34801561054f57600080fd5b5061056a60048036038101906105659190614d67565b611bfb565b6040516105779190614efd565b60405180910390f35b34801561058c57600080fd5b50610595611c13565b6040516105a29190614efd565b60405180910390f35b3480156105b757600080fd5b506105c0611cb5565b6040516105cd9190614efd565b60405180910390f35b6105f060048036038101906105eb9190614d90565b611d53565b005b3480156105fe57600080fd5b5061061960048036038101906106149190614aa6565b612353565b6040516106269190614f1f565b60405180910390f35b34801561063b57600080fd5b5061065660048036038101906106519190614c76565b612428565b6040516106639190614ee2565b60405180910390f35b34801561067857600080fd5b5061068161245e565b60405161068e9190614efd565b60405180910390f35b3480156106a357600080fd5b506106be60048036038101906106b99190614cb7565b612500565b005b3480156106cc57600080fd5b506106e760048036038101906106e29190614bd5565b6129a7565b005b3480156106f557600080fd5b50610710600480360381019061070b9190614c76565b612b5d565b60405161071d9190614ee2565b60405180910390f35b34801561073257600080fd5b5061074d60048036038101906107489190614d67565b612b93565b60405161075a9190614ec7565b60405180910390f35b34801561076f57600080fd5b5061078a60048036038101906107859190614b5a565b612baa565b005b34801561079857600080fd5b506107a1612c22565b6040516107ae9190614f1f565b60405180910390f35b3480156107c357600080fd5b506107de60048036038101906107d99190614d67565b612c28565b6040516107eb9190614efd565b60405180910390f35b34801561080057600080fd5b50610809612ef9565b6040516108169190614f1f565b60405180910390f35b34801561082b57600080fd5b50610834612f0d565b6040516108419190614efd565b60405180910390f35b34801561085657600080fd5b50610871600480360381019061086c9190614acf565b612fab565b60405161087e9190614ee2565b60405180910390f35b34801561089357600080fd5b506108ae60048036038101906108a99190614d67565b61303f565b005b6000806000837bffffffffffffffffffffffffffffffffffffffffffffffffffffffff19167bffffffffffffffffffffffffffffffffffffffffffffffffffffffff1916815260200190815260200160002060009054906101000a900460ff169050919050565b606060068054600181600116156101000203166002900480601f0160208091040260200160405190810160405280929190818152602001828054600181600116156101000203166002900480156109af5780601f10610984576101008083540402835291602001916109af565b820191906000526020600020905b81548152906001019060200180831161099257829003601f168201915b5050505050905090565b60006109c4826135c4565b610a19576040517f08c379a000000000000000000000000000000000000000000000000000000000815260040180806020018281038252602c8152602001806153b1602c913960400191505060405180910390fd5b6004600083815260200190815260200160002060009054906101000a900473ffffffffffffffffffffffffffffffffffffffff169050919050565b6000610a5f82611bc4565b90508073ffffffffffffffffffffffffffffffffffffffff168373ffffffffffffffffffffffffffffffffffffffff161415610ae6576040517f08c379a00000000000000000000000000000000000000000000000000000000081526004018080602001828103825260218152602001806154616021913960400191505060405180910390fd5b8073ffffffffffffffffffffffffffffffffffffffff16610b056135e1565b73ffffffffffffffffffffffffffffffffffffffff161480610b345750610b3381610b2e6135e1565b612fab565b5b610b89576040517f08c379a00000000000000000000000000000000000000000000000000000000081526004018080602001828103825260388152602001806153046038913960400191505060405180910390fd5b610b9383836135e9565b505050565b600080610ba4836135c4565b905080915050919050565b6000610bbb60026136a2565b905090565b610bd1610bcb6135e1565b826136b7565b610c26576040517f08c379a00000000000000000000000000000000000000000000000000000000081526004018080602001828103825260318152602001806154826031913960400191505060405180910390fd5b610c318383836137ab565b505050565b600073ffffffffffffffffffffffffffffffffffffffff163373ffffffffffffffffffffffffffffffffffffffff161415610c7057600080fd5b610c79816135c4565b610c8257600080fd5b6000610c8d82611bc4565b9050600073ffffffffffffffffffffffffffffffffffffffff168173ffffffffffffffffffffffffffffffffffffffff161415610cc957600080fd5b3373ffffffffffffffffffffffffffffffffffffffff168173ffffffffffffffffffffffffffffffffffffffff161415610d0257600080fd5b6000600d60008481526020019081526020016000206040518061016001604052908160008201548152602001600182018054600181600116156101000203166002900480601f016020809104026020016040519081016040528092919081815260200182805460018160011615610100020316600290048015610dc65780601f10610d9b57610100808354040283529160200191610dc6565b820191906000526020600020905b815481529060010190602001808311610da957829003601f168201915b50505050508152602001600282018054600181600116156101000203166002900480601f016020809104026020016040519081016040528092919081815260200182805460018160011615610100020316600290048015610e685780601f10610e3d57610100808354040283529160200191610e68565b820191906000526020600020905b815481529060010190602001808311610e4b57829003601f168201915b505050505081526020016003820160009054906101000a900473ffffffffffffffffffffffffffffffffffffffff1673ffffffffffffffffffffffffffffffffffffffff1673ffffffffffffffffffffffffffffffffffffffff1681526020016004820160009054906101000a900473ffffffffffffffffffffffffffffffffffffffff1673ffffffffffffffffffffffffffffffffffffffff1673ffffffffffffffffffffffffffffffffffffffff1681526020016005820160009054906101000a900473ffffffffffffffffffffffffffffffffffffffff1673ffffffffffffffffffffffffffffffffffffffff1673ffffffffffffffffffffffffffffffffffffffff16815260200160068201548152602001600782015481526020016008820160009054906101000a900460ff1615151515815260200160098201548152602001600a820160009054906101000a900473ffffffffffffffffffffffffffffffffffffffff1673ffffffffffffffffffffffffffffffffffffffff1673ffffffffffffffffffffffffffffffffffffffff1681525050905080610100015161101357600080fd5b80610120015134101561102557600080fd5b3373ffffffffffffffffffffffffffffffffffffffff1681610140015173ffffffffffffffffffffffffffffffffffffffff161461106257600080fd5b61106d8233856137ab565b6000816080015190508073ffffffffffffffffffffffffffffffffffffffff166108fc349081150290604051600060405180830381858888f193505050501580156110bc573d6000803e3d6000fd5b5081608001518260a0019073ffffffffffffffffffffffffffffffffffffffff16908173ffffffffffffffffffffffffffffffffffffffff168152505033826080019073ffffffffffffffffffffffffffffffffffffffff16908173ffffffffffffffffffffffffffffffffffffffff168152505060018260e00181815101915081815250508161012001518260c0018181525050600082610100019015159081151581525050600082610140019073ffffffffffffffffffffffffffffffffffffffff16908173ffffffffffffffffffffffffffffffffffffffff168152505060008261012001818152505081600d60008681526020019081526020016000206000820151816000015560208201518160010190805190602001906111e392919061488d565b50604082015181600201908051906020019061120092919061488d565b5060608201518160030160006101000a81548173ffffffffffffffffffffffffffffffffffffffff021916908373ffffffffffffffffffffffffffffffffffffffff16021790555060808201518160040160006101000a81548173ffffffffffffffffffffffffffffffffffffffff021916908373ffffffffffffffffffffffffffffffffffffffff16021790555060a08201518160050160006101000a81548173ffffffffffffffffffffffffffffffffffffffff021916908373ffffffffffffffffffffffffffffffffffffffff16021790555060c0820151816006015560e082015181600701556101008201518160080160006101000a81548160ff021916908315150217905550610120820151816009015561014082015181600a0160006101000a81548173ffffffffffffffffffffffffffffffffffffffff021916908373ffffffffffffffffffffffffffffffffffffffff16021790555090505050505050565b60006113ba82600160008673ffffffffffffffffffffffffffffffffffffffff1673ffffffffffffffffffffffffffffffffffffffff1681526020019081526020016000206139ee90919063ffffffff16565b905092915050565b6113dd83838360405180602001604052806000815250612baa565b505050565b6000806113ee83612353565b905080915050919050565b6010818051602081018201805184825260208301602085012081835280955050505050506000915054906101000a900460ff1681565b600d602052806000526040600020600091509050806000015490806001018054600181600116156101000203166002900480601f0160208091040260200160405190810160405280929190818152602001828054600181600116156101000203166002900480156114e15780601f106114b6576101008083540402835291602001916114e1565b820191906000526020600020905b8154815290600101906020018083116114c457829003601f168201915b505050505090806002018054600181600116156101000203166002900480601f01602080910402602001604051908101604052809291908181526020018280546001816001161561010002031660029004801561157f5780601f106115545761010080835404028352916020019161157f565b820191906000526020600020905b81548152906001019060200180831161156257829003601f168201915b5050505050908060030160009054906101000a900473ffffffffffffffffffffffffffffffffffffffff16908060040160009054906101000a900473ffffffffffffffffffffffffffffffffffffffff16908060050160009054906101000a900473ffffffffffffffffffffffffffffffffffffffff16908060060154908060070154908060080160009054906101000a900460ff169080600901549080600a0160009054906101000a900473ffffffffffffffffffffffffffffffffffffffff1690508b565b60008061165d836002613a0890919063ffffffff16565b50905080915050919050565b600073ffffffffffffffffffffffffffffffffffffffff163373ffffffffffffffffffffffffffffffffffffffff1614156116a357600080fd5b6116ac826135c4565b6116b557600080fd5b60006116c083611bc4565b90503373ffffffffffffffffffffffffffffffffffffffff168173ffffffffffffffffffffffffffffffffffffffff16146116fa57600080fd5b6000600d60008581526020019081526020016000206040518061016001604052908160008201548152602001600182018054600181600116156101000203166002900480601f0160208091040260200160405190810160405280929190818152602001828054600181600116156101000203166002900480156117be5780601f10611793576101008083540402835291602001916117be565b820191906000526020600020905b8154815290600101906020018083116117a157829003601f168201915b50505050508152602001600282018054600181600116156101000203166002900480601f0160208091040260200160405190810160405280929190818152602001828054600181600116156101000203166002900480156118605780601f1061183557610100808354040283529160200191611860565b820191906000526020600020905b81548152906001019060200180831161184357829003601f168201915b505050505081526020016003820160009054906101000a900473ffffffffffffffffffffffffffffffffffffffff1673ffffffffffffffffffffffffffffffffffffffff1673ffffffffffffffffffffffffffffffffffffffff1681526020016004820160009054906101000a900473ffffffffffffffffffffffffffffffffffffffff1673ffffffffffffffffffffffffffffffffffffffff1673ffffffffffffffffffffffffffffffffffffffff1681526020016005820160009054906101000a900473ffffffffffffffffffffffffffffffffffffffff1673ffffffffffffffffffffffffffffffffffffffff1673ffffffffffffffffffffffffffffffffffffffff16815260200160068201548152602001600782015481526020016008820160009054906101000a900460ff1615151515815260200160098201548152602001600a820160009054906101000a900473ffffffffffffffffffffffffffffffffffffffff1673ffffffffffffffffffffffffffffffffffffffff1673ffffffffffffffffffffffffffffffffffffffff16815250509050828160c001818152505080600d6000868152602001908152602001600020600082015181600001556020820151816001019080519060200190611a4092919061488d565b506040820151816002019080519060200190611a5d92919061488d565b5060608201518160030160006101000a81548173ffffffffffffffffffffffffffffffffffffffff021916908373ffffffffffffffffffffffffffffffffffffffff16021790555060808201518160040160006101000a81548173ffffffffffffffffffffffffffffffffffffffff021916908373ffffffffffffffffffffffffffffffffffffffff16021790555060a08201518160050160006101000a81548173ffffffffffffffffffffffffffffffffffffffff021916908373ffffffffffffffffffffffffffffffffffffffff16021790555060c0820151816006015560e082015181600701556101008201518160080160006101000a81548160ff021916908315150217905550610120820151816009015561014082015181600a0160006101000a81548173ffffffffffffffffffffffffffffffffffffffff021916908373ffffffffffffffffffffffffffffffffffffffff16021790555090505050505050565b6000611bf482604051806060016040528060298152602001615366602991396002613a349092919063ffffffff16565b9050919050565b60606000611c0883612c28565b905080915050919050565b606060098054600181600116156101000203166002900480601f016020809104026020016040519081016040528092919081815260200182805460018160011615610100020316600290048015611cab5780601f10611c8057610100808354040283529160200191611cab565b820191906000526020600020905b815481529060010190602001808311611c8e57829003601f168201915b5050505050905090565b600b8054600181600116156101000203166002900480601f016020809104026020016040519081016040528092919081815260200182805460018160011615610100020316600290048015611d4b5780601f10611d2057610100808354040283529160200191611d4b565b820191906000526020600020905b815481529060010190602001808311611d2e57829003601f168201915b505050505081565b600073ffffffffffffffffffffffffffffffffffffffff163373ffffffffffffffffffffffffffffffffffffffff161415611d8d57600080fd5b611d96826135c4565b611d9f57600080fd5b6000611daa83611bc4565b9050600073ffffffffffffffffffffffffffffffffffffffff168173ffffffffffffffffffffffffffffffffffffffff161415611de657600080fd5b3373ffffffffffffffffffffffffffffffffffffffff168173ffffffffffffffffffffffffffffffffffffffff161415611e1f57600080fd5b6000600d60008581526020019081526020016000206040518061016001604052908160008201548152602001600182018054600181600116156101000203166002900480601f016020809104026020016040519081016040528092919081815260200182805460018160011615610100020316600290048015611ee35780601f10611eb857610100808354040283529160200191611ee3565b820191906000526020600020905b815481529060010190602001808311611ec657829003601f168201915b50505050508152602001600282018054600181600116156101000203166002900480601f016020809104026020016040519081016040528092919081815260200182805460018160011615610100020316600290048015611f855780601f10611f5a57610100808354040283529160200191611f85565b820191906000526020600020905b815481529060010190602001808311611f6857829003601f168201915b505050505081526020016003820160009054906101000a900473ffffffffffffffffffffffffffffffffffffffff1673ffffffffffffffffffffffffffffffffffffffff1673ffffffffffffffffffffffffffffffffffffffff1681526020016004820160009054906101000a900473ffffffffffffffffffffffffffffffffffffffff1673ffffffffffffffffffffffffffffffffffffffff1673ffffffffffffffffffffffffffffffffffffffff1681526020016005820160009054906101000a900473ffffffffffffffffffffffffffffffffffffffff1673ffffffffffffffffffffffffffffffffffffffff1673ffffffffffffffffffffffffffffffffffffffff16815260200160068201548152602001600782015481526020016008820160009054906101000a900460ff1615151515815260200160098201548152602001600a820160009054906101000a900473ffffffffffffffffffffffffffffffffffffffff1673ffffffffffffffffffffffffffffffffffffffff1673ffffffffffffffffffffffffffffffffffffffff168152505090508060c00151831161213157600080fd5b806101200151831161214257600080fd5b80610100015161215157600080fd5b82816101200181815250503381610140019073ffffffffffffffffffffffffffffffffffffffff16908173ffffffffffffffffffffffffffffffffffffffff168152505080600d60008681526020019081526020016000206000820151816000015560208201518160010190805190602001906121cf92919061488d565b5060408201518160020190805190602001906121ec92919061488d565b5060608201518160030160006101000a81548173ffffffffffffffffffffffffffffffffffffffff021916908373ffffffffffffffffffffffffffffffffffffffff16021790555060808201518160040160006101000a81548173ffffffffffffffffffffffffffffffffffffffff021916908373ffffffffffffffffffffffffffffffffffffffff16021790555060a08201518160050160006101000a81548173ffffffffffffffffffffffffffffffffffffffff021916908373ffffffffffffffffffffffffffffffffffffffff16021790555060c0820151816006015560e082015181600701556101008201518160080160006101000a81548160ff021916908315150217905550610120820151816009015561014082015181600a0160006101000a81548173ffffffffffffffffffffffffffffffffffffffff021916908373ffffffffffffffffffffffffffffffffffffffff16021790555090505050505050565b60008073ffffffffffffffffffffffffffffffffffffffff168273ffffffffffffffffffffffffffffffffffffffff1614156123da576040517f08c379a000000000000000000000000000000000000000000000000000000000815260040180806020018281038252602a81526020018061533c602a913960400191505060405180910390fd5b612421600160008473ffffffffffffffffffffffffffffffffffffffff1673ffffffffffffffffffffffffffffffffffffffff168152602001908152602001600020613a53565b9050919050565b600f818051602081018201805184825260208301602085012081835280955050505050506000915054906101000a900460ff1681565b606060078054600181600116156101000203166002900480601f0160208091040260200160405190810160405280929190818152602001828054600181600116156101000203166002900480156124f65780601f106124cb576101008083540402835291602001916124f6565b820191906000526020600020905b8154815290600101906020018083116124d957829003601f168201915b5050505050905090565b600073ffffffffffffffffffffffffffffffffffffffff163373ffffffffffffffffffffffffffffffffffffffff16141561253a57600080fd5b600c60008154809291906001019190505550612557600c546135c4565b1561256157600080fd5b60005b828290508110156125d057600f83838381811061257d57fe5b905060200281019061258f9190614ff3565b60405161259d929190614e97565b908152602001604051809103902060009054906101000a900460ff16156125c357600080fd5b8080600101915050612564565b506010846040516125e19190614eb0565b908152602001604051809103902060009054906101000a900460ff161561260757600080fd5b600e856040516126179190614eb0565b908152602001604051809103902060009054906101000a900460ff161561263d57600080fd5b61264933600c54613a68565b612655600c5485613c5c565b60005b828290508110156126c5576001600f84848481811061267357fe5b90506020028101906126859190614ff3565b604051612693929190614e97565b908152602001604051809103902060006101000a81548160ff0219169083151502179055508080600101915050612658565b5060016010856040516126d89190614eb0565b908152602001604051809103902060006101000a81548160ff0219169083151502179055506001600e8660405161270f9190614eb0565b908152602001604051809103902060006101000a81548160ff0219169083151502179055506000604051806101600160405280600c5481526020018781526020018681526020013373ffffffffffffffffffffffffffffffffffffffff1681526020013373ffffffffffffffffffffffffffffffffffffffff168152602001600073ffffffffffffffffffffffffffffffffffffffff1681526020018581526020016000815260200160001515815260200160008152602001600073ffffffffffffffffffffffffffffffffffffffff16815250905080600d6000600c54815260200190815260200160002060008201518160000155602082015181600101908051906020019061282192919061488d565b50604082015181600201908051906020019061283e92919061488d565b5060608201518160030160006101000a81548173ffffffffffffffffffffffffffffffffffffffff021916908373ffffffffffffffffffffffffffffffffffffffff16021790555060808201518160040160006101000a81548173ffffffffffffffffffffffffffffffffffffffff021916908373ffffffffffffffffffffffffffffffffffffffff16021790555060a08201518160050160006101000a81548173ffffffffffffffffffffffffffffffffffffffff021916908373ffffffffffffffffffffffffffffffffffffffff16021790555060c0820151816006015560e082015181600701556101008201518160080160006101000a81548160ff021916908315150217905550610120820151816009015561014082015181600a0160006101000a81548173ffffffffffffffffffffffffffffffffffffffff021916908373ffffffffffffffffffffffffffffffffffffffff160217905550905050505050505050565b6129af6135e1565b73ffffffffffffffffffffffffffffffffffffffff168273ffffffffffffffffffffffffffffffffffffffff161415612a50576040517f08c379a00000000000000000000000000000000000000000000000000000000081526004018080602001828103825260198152602001807f4552433732313a20617070726f766520746f2063616c6c65720000000000000081525060200191505060405180910390fd5b8060056000612a5d6135e1565b73ffffffffffffffffffffffffffffffffffffffff1673ffffffffffffffffffffffffffffffffffffffff16815260200190815260200160002060008473ffffffffffffffffffffffffffffffffffffffff1673ffffffffffffffffffffffffffffffffffffffff16815260200190815260200160002060006101000a81548160ff0219169083151502179055508173ffffffffffffffffffffffffffffffffffffffff16612b0a6135e1565b73ffffffffffffffffffffffffffffffffffffffff167f17307eab39ab6107e8899845ad3d59bd9653f200f220920489ca2b5937696c318360405180821515815260200191505060405180910390a35050565b600e818051602081018201805184825260208301602085012081835280955050505050506000915054906101000a900460ff1681565b600080612b9f83611bc4565b905080915050919050565b612bbb612bb56135e1565b836136b7565b612c10576040517f08c379a00000000000000000000000000000000000000000000000000000000081526004018080602001828103825260318152602001806154826031913960400191505060405180910390fd5b612c1c84848484613ce6565b50505050565b600c5481565b6060612c33826135c4565b612c88576040517f08c379a000000000000000000000000000000000000000000000000000000000815260040180806020018281038252602f815260200180615432602f913960400191505060405180910390fd5b6000600860008481526020019081526020016000208054600181600116156101000203166002900480601f016020809104026020016040519081016040528092919081815260200182805460018160011615610100020316600290048015612d315780601f10612d0657610100808354040283529160200191612d31565b820191906000526020600020905b815481529060010190602001808311612d1457829003601f168201915b505050505090506000612d42611c13565b9050600081511415612d58578192505050612ef4565b600082511115612e295780826040516020018083805190602001908083835b60208310612d9a5780518252602082019150602081019050602083039250612d77565b6001836020036101000a03801982511681845116808217855250505050505090500182805190602001908083835b60208310612deb5780518252602082019150602081019050602083039250612dc8565b6001836020036101000a0380198251168184511680821785525050505050509050019250505060405160208183030381529060405292505050612ef4565b80612e3385613d58565b6040516020018083805190602001908083835b60208310612e695780518252602082019150602081019050602083039250612e46565b6001836020036101000a03801982511681845116808217855250505050505090500182805190602001908083835b60208310612eba5780518252602082019150602081019050602083039250612e97565b6001836020036101000a03801982511681845116808217855250505050505090500192505050604051602081830303815290604052925050505b919050565b600080612f04610baf565b90508091505090565b600a8054600181600116156101000203166002900480601f016020809104026020016040519081016040528092919081815260200182805460018160011615610100020316600290048015612fa35780601f10612f7857610100808354040283529160200191612fa3565b820191906000526020600020905b815481529060010190602001808311612f8657829003601f168201915b505050505081565b6000600560008473ffffffffffffffffffffffffffffffffffffffff1673ffffffffffffffffffffffffffffffffffffffff16815260200190815260200160002060008373ffffffffffffffffffffffffffffffffffffffff1673ffffffffffffffffffffffffffffffffffffffff16815260200190815260200160002060009054906101000a900460ff16905092915050565b600073ffffffffffffffffffffffffffffffffffffffff163373ffffffffffffffffffffffffffffffffffffffff16141561307957600080fd5b613082816135c4565b61308b57600080fd5b600061309682611bc4565b90503373ffffffffffffffffffffffffffffffffffffffff168173ffffffffffffffffffffffffffffffffffffffff16146130d057600080fd5b6000600d60008481526020019081526020016000206040518061016001604052908160008201548152602001600182018054600181600116156101000203166002900480601f0160208091040260200160405190810160405280929190818152602001828054600181600116156101000203166002900480156131945780601f1061316957610100808354040283529160200191613194565b820191906000526020600020905b81548152906001019060200180831161317757829003601f168201915b50505050508152602001600282018054600181600116156101000203166002900480601f0160208091040260200160405190810160405280929190818152602001828054600181600116156101000203166002900480156132365780601f1061320b57610100808354040283529160200191613236565b820191906000526020600020905b81548152906001019060200180831161321957829003601f168201915b505050505081526020016003820160009054906101000a900473ffffffffffffffffffffffffffffffffffffffff1673ffffffffffffffffffffffffffffffffffffffff1673ffffffffffffffffffffffffffffffffffffffff1681526020016004820160009054906101000a900473ffffffffffffffffffffffffffffffffffffffff1673ffffffffffffffffffffffffffffffffffffffff1673ffffffffffffffffffffffffffffffffffffffff1681526020016005820160009054906101000a900473ffffffffffffffffffffffffffffffffffffffff1673ffffffffffffffffffffffffffffffffffffffff1673ffffffffffffffffffffffffffffffffffffffff16815260200160068201548152602001600782015481526020016008820160009054906101000a900460ff1615151515815260200160098201548152602001600a820160009054906101000a900473ffffffffffffffffffffffffffffffffffffffff1673ffffffffffffffffffffffffffffffffffffffff1673ffffffffffffffffffffffffffffffffffffffff16815250509050806101000151156133f457600081610100019015159081151581525050613407565b6001816101000190151590811515815250505b80600d600085815260200190815260200160002060008201518160000155602082015181600101908051906020019061344192919061488d565b50604082015181600201908051906020019061345e92919061488d565b5060608201518160030160006101000a81548173ffffffffffffffffffffffffffffffffffffffff021916908373ffffffffffffffffffffffffffffffffffffffff16021790555060808201518160040160006101000a81548173ffffffffffffffffffffffffffffffffffffffff021916908373ffffffffffffffffffffffffffffffffffffffff16021790555060a08201518160050160006101000a81548173ffffffffffffffffffffffffffffffffffffffff021916908373ffffffffffffffffffffffffffffffffffffffff16021790555060c0820151816006015560e082015181600701556101008201518160080160006101000a81548160ff021916908315150217905550610120820151816009015561014082015181600a0160006101000a81548173ffffffffffffffffffffffffffffffffffffffff021916908373ffffffffffffffffffffffffffffffffffffffff160217905550905050505050565b60006135da826002613e9f90919063ffffffff16565b9050919050565b600033905090565b816004600083815260200190815260200160002060006101000a81548173ffffffffffffffffffffffffffffffffffffffff021916908373ffffffffffffffffffffffffffffffffffffffff160217905550808273ffffffffffffffffffffffffffffffffffffffff1661365c83611bc4565b73ffffffffffffffffffffffffffffffffffffffff167f8c5be1e5ebec7d5bd14f71427d1e84f3dd0314c0f7b2291e5b200ac8c7c3b92560405160405180910390a45050565b60006136b082600001613eb9565b9050919050565b60006136c2826135c4565b613717576040517f08c379a000000000000000000000000000000000000000000000000000000000815260040180806020018281038252602c8152602001806152d8602c913960400191505060405180910390fd5b600061372283611bc4565b90508073ffffffffffffffffffffffffffffffffffffffff168473ffffffffffffffffffffffffffffffffffffffff16148061379157508373ffffffffffffffffffffffffffffffffffffffff16613779846109b9565b73ffffffffffffffffffffffffffffffffffffffff16145b806137a257506137a18185612fab565b5b91505092915050565b8273ffffffffffffffffffffffffffffffffffffffff166137cb82611bc4565b73ffffffffffffffffffffffffffffffffffffffff1614613837576040517f08c379a00000000000000000000000000000000000000000000000000000000081526004018080602001828103825260298152602001806154096029913960400191505060405180910390fd5b600073ffffffffffffffffffffffffffffffffffffffff168273ffffffffffffffffffffffffffffffffffffffff1614156138bd576040517f08c379a000000000000000000000000000000000000000000000000000000000815260040180806020018281038252602481526020018061528e6024913960400191505060405180910390fd5b6138c8838383613eca565b6138d36000826135e9565b61392481600160008673ffffffffffffffffffffffffffffffffffffffff1673ffffffffffffffffffffffffffffffffffffffff168152602001908152602001600020613ecf90919063ffffffff16565b5061397681600160008573ffffffffffffffffffffffffffffffffffffffff1673ffffffffffffffffffffffffffffffffffffffff168152602001908152602001600020613ee990919063ffffffff16565b5061398d81836002613f039092919063ffffffff16565b50808273ffffffffffffffffffffffffffffffffffffffff168473ffffffffffffffffffffffffffffffffffffffff167fddf252ad1be2c89b69c2b068fc378daa952ba7f163c4a11628f55a4df523b3ef60405160405180910390a4505050565b60006139fd8360000183613f38565b60001c905092915050565b600080600080613a1b8660000186613fbb565b915091508160001c8160001c9350935050509250929050565b6000613a47846000018460001b84614054565b60001c90509392505050565b6000613a618260000161414a565b9050919050565b600073ffffffffffffffffffffffffffffffffffffffff168273ffffffffffffffffffffffffffffffffffffffff161415613b0b576040517f08c379a00000000000000000000000000000000000000000000000000000000081526004018080602001828103825260208152602001807f4552433732313a206d696e7420746f20746865207a65726f206164647265737381525060200191505060405180910390fd5b613b14816135c4565b15613b87576040517f08c379a000000000000000000000000000000000000000000000000000000000815260040180806020018281038252601c8152602001807f4552433732313a20746f6b656e20616c7265616479206d696e7465640000000081525060200191505060405180910390fd5b613b9360008383613eca565b613be481600160008573ffffffffffffffffffffffffffffffffffffffff1673ffffffffffffffffffffffffffffffffffffffff168152602001908152602001600020613ee990919063ffffffff16565b50613bfb81836002613f039092919063ffffffff16565b50808273ffffffffffffffffffffffffffffffffffffffff16600073ffffffffffffffffffffffffffffffffffffffff167fddf252ad1be2c89b69c2b068fc378daa952ba7f163c4a11628f55a4df523b3ef60405160405180910390a45050565b613c65826135c4565b613cba576040517f08c379a000000000000000000000000000000000000000000000000000000000815260040180806020018281038252602c8152602001806153dd602c913960400191505060405180910390fd5b80600860008481526020019081526020016000209080519060200190613ce192919061488d565b505050565b613cf18484846137ab565b613cfd8484848461415b565b613d52576040517f08c379a000000000000000000000000000000000000000000000000000000000815260040180806020018281038252603281526020018061525c6032913960400191505060405180910390fd5b50505050565b60606000821415613da0576040518060400160405280600181526020017f30000000000000000000000000000000000000000000000000000000000000008152509050613e9a565b600082905060005b60008214613dca578080600101915050600a8281613dc257fe5b049150613da8565b60008167ffffffffffffffff81118015613de357600080fd5b506040519080825280601f01601f191660200182016040528015613e165781602001600182028036833780820191505090505b50905060006001830390508593505b60008414613e9257600a8481613e3757fe5b0660300160f81b82828060019003935081518110613e5157fe5b60200101907effffffffffffffffffffffffffffffffffffffffffffffffffffffffffffff1916908160001a905350600a8481613e8a57fe5b049350613e25565b819450505050505b919050565b6000613eb1836000018360001b614374565b905092915050565b600081600001805490509050919050565b505050565b6000613ee1836000018360001b614397565b905092915050565b6000613efb836000018360001b61447f565b905092915050565b6000613f2f846000018460001b8473ffffffffffffffffffffffffffffffffffffffff1660001b6144ef565b90509392505050565b600081836000018054905011613f99576040517f08c379a000000000000000000000000000000000000000000000000000000000815260040180806020018281038252602281526020018061523a6022913960400191505060405180910390fd5b826000018281548110613fa857fe5b9060005260206000200154905092915050565b6000808284600001805490501161401d576040517f08c379a000000000000000000000000000000000000000000000000000000000815260040180806020018281038252602281526020018061538f6022913960400191505060405180910390fd5b600084600001848154811061402e57fe5b906000526020600020906002020190508060000154816001015492509250509250929050565b6000808460010160008581526020019081526020016000205490506000811415839061411b576040517f08c379a00000000000000000000000000000000000000000000000000000000081526004018080602001828103825283818151815260200191508051906020019080838360005b838110156140e05780820151818401526020810190506140c5565b50505050905090810190601f16801561410d5780820380516001836020036101000a031916815260200191505b509250505060405180910390fd5b5084600001600182038154811061412e57fe5b9060005260206000209060020201600101549150509392505050565b600081600001805490509050919050565b600061417c8473ffffffffffffffffffffffffffffffffffffffff166145cb565b614189576001905061436c565b60006142f363150b7a0260e01b61419e6135e1565b888787604051602401808573ffffffffffffffffffffffffffffffffffffffff1681526020018473ffffffffffffffffffffffffffffffffffffffff16815260200183815260200180602001828103825283818151815260200191508051906020019080838360005b83811015614222578082015181840152602081019050614207565b50505050905090810190601f16801561424f5780820380516001836020036101000a031916815260200191505b5095505050505050604051602081830303815290604052907bffffffffffffffffffffffffffffffffffffffffffffffffffffffff19166020820180517bffffffffffffffffffffffffffffffffffffffffffffffffffffffff838183161783525050505060405180606001604052806032815260200161525c603291398773ffffffffffffffffffffffffffffffffffffffff166145de9092919063ffffffff16565b9050600081806020019051602081101561430c57600080fd5b8101908080519060200190929190505050905063150b7a0260e01b7bffffffffffffffffffffffffffffffffffffffffffffffffffffffff1916817bffffffffffffffffffffffffffffffffffffffffffffffffffffffff191614925050505b949350505050565b600080836001016000848152602001908152602001600020541415905092915050565b6000808360010160008481526020019081526020016000205490506000811461447357600060018203905060006001866000018054905003905060008660000182815481106143e257fe5b90600052602060002001549050808760000184815481106143ff57fe5b906000526020600020018190555060018301876001016000838152602001908152602001600020819055508660000180548061443757fe5b60019003818190600052602060002001600090559055866001016000878152602001908152602001600020600090556001945050505050614479565b60009150505b92915050565b600061448b83836145f6565b6144e45782600001829080600181540180825580915050600190039060005260206000200160009091909190915055826000018054905083600101600084815260200190815260200160002081905550600190506144e9565b600090505b92915050565b6000808460010160008581526020019081526020016000205490506000811415614596578460000160405180604001604052808681526020018581525090806001815401808255809150506001900390600052602060002090600202016000909190919091506000820151816000015560208201518160010155505084600001805490508560010160008681526020019081526020016000208190555060019150506145c4565b828560000160018303815481106145a957fe5b90600052602060002090600202016001018190555060009150505b9392505050565b600080823b905060008111915050919050565b60606145ed8484600085614619565b90509392505050565b600080836001016000848152602001908152602001600020541415905092915050565b606082471015614674576040517f08c379a00000000000000000000000000000000000000000000000000000000081526004018080602001828103825260268152602001806152b26026913960400191505060405180910390fd5b61467d856145cb565b6146ef576040517f08c379a000000000000000000000000000000000000000000000000000000000815260040180806020018281038252601d8152602001807f416464726573733a2063616c6c20746f206e6f6e2d636f6e747261637400000081525060200191505060405180910390fd5b6000808673ffffffffffffffffffffffffffffffffffffffff1685876040518082805190602001908083835b6020831061473e578051825260208201915060208101905060208303925061471b565b6001836020036101000a03801982511681845116808217855250505050505090500191505060006040518083038185875af1925050503d80600081146147a0576040519150601f19603f3d011682016040523d82523d6000602084013e6147a5565b606091505b50915091506147b58282866147c1565b92505050949350505050565b606083156147d157829050614886565b6000835111156147e45782518084602001fd5b816040517f08c379a00000000000000000000000000000000000000000000000000000000081526004018080602001828103825283818151815260200191508051906020019080838360005b8381101561484b578082015181840152602081019050614830565b50505050905090810190601f1680156148785780820380516001836020036101000a031916815260200191505b509250505060405180910390fd5b9392505050565b828054600181600116156101000203166002900490600052602060002090601f0160209004810192826148c3576000855561490a565b82601f106148dc57805160ff191683800117855561490a565b8280016001018555821561490a579182015b828111156149095782518255916020019190600101906148ee565b5b509050614917919061491b565b5090565b5b8082111561493457600081600090555060010161491c565b5090565b600061494b6149468461507b565b61504a565b90508281526020810184848401111561496357600080fd5b61496e848285615188565b509392505050565b6000614989614984846150ab565b61504a565b9050828152602081018484840111156149a157600080fd5b6149ac848285615188565b509392505050565b6000813590506149c3816151dd565b92915050565b60008083601f8401126149db57600080fd5b8235905067ffffffffffffffff8111156149f457600080fd5b602083019150836020820283011115614a0c57600080fd5b9250929050565b600081359050614a22816151f4565b92915050565b600081359050614a378161520b565b92915050565b600082601f830112614a4e57600080fd5b8135614a5e848260208601614938565b91505092915050565b600082601f830112614a7857600080fd5b8135614a88848260208601614976565b91505092915050565b600081359050614aa081615222565b92915050565b600060208284031215614ab857600080fd5b6000614ac6848285016149b4565b91505092915050565b60008060408385031215614ae257600080fd5b6000614af0858286016149b4565b9250506020614b01858286016149b4565b9150509250929050565b600080600060608486031215614b2057600080fd5b6000614b2e868287016149b4565b9350506020614b3f868287016149b4565b9250506040614b5086828701614a91565b9150509250925092565b60008060008060808587031215614b7057600080fd5b6000614b7e878288016149b4565b9450506020614b8f878288016149b4565b9350506040614ba087828801614a91565b925050606085013567ffffffffffffffff811115614bbd57600080fd5b614bc987828801614a3d565b91505092959194509250565b60008060408385031215614be857600080fd5b6000614bf6858286016149b4565b9250506020614c0785828601614a13565b9150509250929050565b60008060408385031215614c2457600080fd5b6000614c32858286016149b4565b9250506020614c4385828601614a91565b9150509250929050565b600060208284031215614c5f57600080fd5b6000614c6d84828501614a28565b91505092915050565b600060208284031215614c8857600080fd5b600082013567ffffffffffffffff811115614ca257600080fd5b614cae84828501614a67565b91505092915050565b600080600080600060808688031215614ccf57600080fd5b600086013567ffffffffffffffff811115614ce957600080fd5b614cf588828901614a67565b955050602086013567ffffffffffffffff811115614d1257600080fd5b614d1e88828901614a67565b9450506040614d2f88828901614a91565b935050606086013567ffffffffffffffff811115614d4c57600080fd5b614d58888289016149c9565b92509250509295509295909350565b600060208284031215614d7957600080fd5b6000614d8784828501614a91565b91505092915050565b60008060408385031215614da357600080fd5b6000614db185828601614a91565b9250506020614dc285828601614a91565b9150509250929050565b614dd581615114565b82525050565b614de481615102565b82525050565b614df381615126565b82525050565b6000614e0583856150f7565b9350614e12838584615188565b82840190509392505050565b6000614e29826150db565b614e3381856150e6565b9350614e43818560208601615197565b614e4c816151cc565b840191505092915050565b6000614e62826150db565b614e6c81856150f7565b9350614e7c818560208601615197565b80840191505092915050565b614e918161517e565b82525050565b6000614ea4828486614df9565b91508190509392505050565b6000614ebc8284614e57565b915081905092915050565b6000602082019050614edc6000830184614ddb565b92915050565b6000602082019050614ef76000830184614dea565b92915050565b60006020820190508181036000830152614f178184614e1e565b905092915050565b6000602082019050614f346000830184614e88565b92915050565b600061016082019050614f50600083018e614e88565b8181036020830152614f62818d614e1e565b90508181036040830152614f76818c614e1e565b9050614f85606083018b614dcc565b614f92608083018a614dcc565b614f9f60a0830189614dcc565b614fac60c0830188614e88565b614fb960e0830187614e88565b614fc7610100830186614dea565b614fd5610120830185614e88565b614fe3610140830184614dcc565b9c9b505050505050505050505050565b6000808335600160200384360303811261500c57600080fd5b80840192508235915067ffffffffffffffff82111561502a57600080fd5b60208301925060018202360383131561504257600080fd5b509250929050565b6000604051905081810181811067ffffffffffffffff82111715615071576150706151ca565b5b8060405250919050565b600067ffffffffffffffff821115615096576150956151ca565b5b601f19601f8301169050602081019050919050565b600067ffffffffffffffff8211156150c6576150c56151ca565b5b601f19601f8301169050602081019050919050565b600081519050919050565b600082825260208201905092915050565b600081905092915050565b600061510d8261515e565b9050919050565b600061511f8261515e565b9050919050565b60008115159050919050565b60007fffffffff0000000000000000000000000000000000000000000000000000000082169050919050565b600073ffffffffffffffffffffffffffffffffffffffff82169050919050565b6000819050919050565b82818337600083830152505050565b60005b838110156151b557808201518184015260208101905061519a565b838111156151c4576000848401525b50505050565bfe5b6000601f19601f8301169050919050565b6151e681615102565b81146151f157600080fd5b50565b6151fd81615126565b811461520857600080fd5b50565b61521481615132565b811461521f57600080fd5b50565b61522b8161517e565b811461523657600080fd5b5056fe456e756d657261626c655365743a20696e646578206f7574206f6620626f756e64734552433732313a207472616e7366657220746f206e6f6e20455243373231526563656976657220696d706c656d656e7465724552433732313a207472616e7366657220746f20746865207a65726f2061646472657373416464726573733a20696e73756666696369656e742062616c616e636520666f722063616c6c4552433732313a206f70657261746f7220717565727920666f72206e6f6e6578697374656e7420746f6b656e4552433732313a20617070726f76652063616c6c6572206973206e6f74206f776e6572206e6f7220617070726f76656420666f7220616c6c4552433732313a2062616c616e636520717565727920666f7220746865207a65726f20616464726573734552433732313a206f776e657220717565727920666f72206e6f6e6578697374656e7420746f6b656e456e756d657261626c654d61703a20696e646578206f7574206f6620626f756e64734552433732313a20617070726f76656420717565727920666f72206e6f6e6578697374656e7420746f6b656e4552433732314d657461646174613a2055524920736574206f66206e6f6e6578697374656e7420746f6b656e4552433732313a207472616e73666572206f6620746f6b656e2074686174206973206e6f74206f776e4552433732314d657461646174613a2055524920717565727920666f72206e6f6e6578697374656e7420746f6b656e4552433732313a20617070726f76616c20746f2063757272656e74206f776e65724552433732313a207472616e736665722063616c6c6572206973206e6f74206f776e6572206e6f7220617070726f766564a2646970667358221220d92e8cb0da63f3c2860a1186082a9d1e53cb5f58298d7842d3332ea0e14d02ce64736f6c63430007060033",
  "immutableReferences": {},
  "source": "// SPDX-License-Identifier: MIT\r\npragma solidity >=0.4.21 <0.8.0;\r\npragma abicoder v2;\r\n\r\nimport \"./ERC721.sol\";\r\n\r\ncontract CryptoBoys is ERC721 {\r\n\r\n  string public collectionName;\r\n  string public collectionNameSymbol;\r\n  uint256 public cryptoBoyCounter;\r\n\r\n   struct CryptoBoy {\r\n    uint256 tokenId;\r\n    string tokenName;\r\n    string tokenURI;\r\n    address payable mintedBy;\r\n    address payable currentOwner;\r\n    address payable previousOwner;\r\n    uint256 price;\r\n    uint256 numberOfTransfers;\r\n    //bool forSale;\r\n\r\n    bool forBidding;\r\n    uint256 biddingPrice;\r\n    address payable currentBidder;\r\n   \r\n\r\n  }\r\n \r\n  mapping(uint256 => CryptoBoy) public allCryptoBoys;\r\n  mapping(string => bool) public tokenNameExists;\r\n  mapping(string => bool) public colorExists;\r\n  mapping(string => bool) public tokenURIExists;\r\n\r\n  constructor() ERC721(\"Crypto Smily Collection\", \"CS\") {\r\n    collectionName = name();\r\n    collectionNameSymbol = symbol();\r\n  }\r\n\r\n  function mintCryptoBoy(string memory _name, string memory _tokenURI, uint256 _price, string[] calldata _colors) external {\r\n    require(msg.sender != address(0));\r\n    cryptoBoyCounter ++;\r\n    require(!_exists(cryptoBoyCounter));\r\n\r\n    for(uint i=0; i<_colors.length; i++) {\r\n      require(!colorExists[_colors[i]]);\r\n    }\r\n    require(!tokenURIExists[_tokenURI]);\r\n    require(!tokenNameExists[_name]);\r\n\r\n    _mint(msg.sender, cryptoBoyCounter);\r\n    _setTokenURI(cryptoBoyCounter, _tokenURI);\r\n\r\n    for (uint i=0; i<_colors.length; i++) {\r\n      colorExists[_colors[i]] = true;\r\n    }\r\n    tokenURIExists[_tokenURI] = true;\r\n    tokenNameExists[_name] = true;\r\n\r\n    CryptoBoy memory newCryptoBoy = CryptoBoy(\r\n    cryptoBoyCounter,\r\n    _name,\r\n    _tokenURI,\r\n    msg.sender,\r\n    msg.sender,\r\n    address(0),\r\n    _price,\r\n    0,\r\n    //true,\r\n    false,\r\n    0,\r\n    address(0)\r\n   );\r\n    allCryptoBoys[cryptoBoyCounter] = newCryptoBoy;\r\n  }\r\n\r\n  function getTokenOwner(uint256 _tokenId) public view returns(address) {\r\n    address _tokenOwner = ownerOf(_tokenId);\r\n    return _tokenOwner;\r\n  }\r\n\r\n  function getTokenMetaData(uint _tokenId) public view returns(string memory) {\r\n    string memory tokenMetaData = tokenURI(_tokenId);\r\n    return tokenMetaData;\r\n  }\r\n\r\n  function getNumberOfTokensMinted() public view returns(uint256) {\r\n    uint256 totalNumberOfTokensMinted = totalSupply();\r\n    return totalNumberOfTokensMinted;\r\n  }\r\n\r\n  function getTotalNumberOfTokensOwnedByAnAddress(address _owner) public view returns(uint256) {\r\n    uint256 totalNumberOfTokensOwned = balanceOf(_owner);\r\n    return totalNumberOfTokensOwned;\r\n  }\r\n\r\n  function getTokenExists(uint256 _tokenId) public view returns(bool) {\r\n    bool tokenExists = _exists(_tokenId);\r\n    return tokenExists;\r\n  }\r\n\r\n  /*function buyToken(uint256 _tokenId) public payable {\r\n    // check if the function caller is not an zero account address\r\n    require(msg.sender != address(0));\r\n    // check if the token id of the token being bought exists or not\r\n    require(_exists(_tokenId));\r\n    // get the token's owner\r\n    address tokenOwner = ownerOf(_tokenId);\r\n    // token's owner should not be an zero address account\r\n    require(tokenOwner != address(0));\r\n    // the one who wants to buy the token should not be the token's owner\r\n    require(tokenOwner != msg.sender);\r\n    // get that token from all crypto boys mapping and create a memory of it defined as (struct => CryptoBoy)\r\n    CryptoBoy memory cryptoboy = allCryptoBoys[_tokenId];\r\n    // price sent in to buy should be equal to or more than the token's price\r\n    require(msg.value >= cryptoboy.price);\r\n    // token should be for sale\r\n    require(cryptoboy.forSale);\r\n    // transfer the token from owner to the caller of the function (buyer)\r\n    _transfer(tokenOwner, msg.sender, _tokenId);\r\n    // get owner of the token\r\n    address payable sendTo = cryptoboy.currentOwner;\r\n    // send token's worth of ethers to the owner\r\n    sendTo.transfer(msg.value);\r\n    // update the token's previous owner\r\n    cryptoboy.previousOwner = cryptoboy.currentOwner;\r\n    // update the token's current owner\r\n    cryptoboy.currentOwner = msg.sender;\r\n    // update the how many times this token was transfered\r\n    cryptoboy.numberOfTransfers += 1;\r\n    // set and update that token in the mapping\r\n    allCryptoBoys[_tokenId] = cryptoboy;\r\n  }*/\r\n\r\n  function changeTokenPrice(uint256 _tokenId, uint256 _newPrice) public {\r\n    // require caller of the function is not an empty address\r\n    require(msg.sender != address(0));\r\n    // require that token should exist\r\n    require(_exists(_tokenId));\r\n    // get the token's owner\r\n    address tokenOwner = ownerOf(_tokenId);\r\n    // check that token's owner should be equal to the caller of the function\r\n    require(tokenOwner == msg.sender);\r\n    // get that token from all crypto boys mapping and create a memory of it defined as (struct => CryptoBoy)\r\n    CryptoBoy memory cryptoboy = allCryptoBoys[_tokenId];\r\n    // update token's price with new price\r\n    cryptoboy.price = _newPrice;\r\n    // set and update that token in the mapping\r\n    allCryptoBoys[_tokenId] = cryptoboy;\r\n  }\r\n\r\n  // switch between set for sale and set not for sale\r\n /* function toggleForSale(uint256 _tokenId) public {\r\n    // require caller of the function is not an empty address\r\n    require(msg.sender != address(0));\r\n    // require that token should exist\r\n    require(_exists(_tokenId));\r\n    // get the token's owner\r\n    address tokenOwner = ownerOf(_tokenId);\r\n    // check that token's owner should be equal to the caller of the function\r\n    require(tokenOwner == msg.sender);\r\n    // get that token from all crypto boys mapping and create a memory of it defined as (struct => CryptoBoy)\r\n    CryptoBoy memory cryptoboy = allCryptoBoys[_tokenId];\r\n    // if token's forSale is false make it true and vice versa\r\n    if(cryptoboy.forSale) {\r\n      cryptoboy.forSale = false;\r\n    } else {\r\n      cryptoboy.forSale = true;\r\n      //cryptoboy.forBidding = false;\r\n    }\r\n    // set and update that token in the mapping\r\n    allCryptoBoys[_tokenId] = cryptoboy;\r\n  }*/\r\n \r\n  function toggleforBidding(uint256 _tokenId) public {\r\n\r\n    require(msg.sender != address(0));\r\n    require(_exists(_tokenId));\r\n    address tokenOwner = ownerOf(_tokenId);\r\n    require(tokenOwner == msg.sender);\r\n\r\n    CryptoBoy memory cryptoboy = allCryptoBoys[_tokenId];\r\n    if(cryptoboy.forBidding) {\r\n      cryptoboy.forBidding = false;\r\n    } else {\r\n      cryptoboy.forBidding = true;\r\n     \r\n    }\r\n       \r\n    allCryptoBoys[_tokenId] = cryptoboy;\r\n }\r\n \r\n function changeBidTokenPrice(uint256 _tokenId,uint256 _newPrice) public payable {\r\n    \r\n    require(msg.sender != address(0));    \r\n    require(_exists(_tokenId));   \r\n    address tokenOwner = ownerOf(_tokenId);    \r\n    require(tokenOwner != address(0));    \r\n    require(tokenOwner != msg.sender);\r\n\r\n    CryptoBoy memory cryptoboy = allCryptoBoys[_tokenId];    \r\n    require(_newPrice > cryptoboy.price);    \r\n    require(_newPrice > cryptoboy.biddingPrice);    \r\n    require(cryptoboy.forBidding);\r\n\r\n    cryptoboy.biddingPrice = _newPrice;\r\n    cryptoboy.currentBidder = msg.sender;\r\n    allCryptoBoys[_tokenId] = cryptoboy;\r\n  }\r\n\r\n  function buyToken(uint256 _tokenId) public payable {\r\n\r\n    require(msg.sender != address(0));\r\n    require(_exists(_tokenId));\r\n    address tokenOwner = ownerOf(_tokenId);\r\n    require(tokenOwner != address(0));\r\n    require(tokenOwner != msg.sender);\r\n\r\n    CryptoBoy memory cryptoboy = allCryptoBoys[_tokenId];\r\n    require(cryptoboy.forBidding);\r\n    require(msg.value >= cryptoboy.biddingPrice);\r\n    require(cryptoboy.currentBidder == msg.sender);\r\n\r\n    _transfer(tokenOwner, msg.sender, _tokenId);\r\n    address payable sendTo = cryptoboy.currentOwner;\r\n    sendTo.transfer(msg.value);\r\n    \r\n    cryptoboy.previousOwner = cryptoboy.currentOwner;\r\n    cryptoboy.currentOwner = msg.sender;\r\n    cryptoboy.numberOfTransfers += 1;\r\n    cryptoboy.price = cryptoboy.biddingPrice;\r\n    cryptoboy.forBidding = false;\r\n    cryptoboy.currentBidder = address(0);\r\n    cryptoboy.biddingPrice = 0;\r\n    allCryptoBoys[_tokenId] = cryptoboy;\r\n  }\r\n}",
  "sourcePath": "E:\\blockchain\\cryptoSmily\\cryptoboys-NFT-marketplace\\src\\contracts\\CryptoBoys.sol",
  "compiler": {
    "name": "solc",
    "version": "0.7.6+commit.7338295f.Emscripten.clang"
  },
  "schemaVersion": "3.4.3",
  "updatedAt": "2021-12-07T08:01:51.537Z",
  "networkType": "ethereum",
  "devdoc": {
    "kind": "dev",
    "methods": {
      "approve(address,uint256)": {
        "details": "See {IERC721-approve}."
      },
      "balanceOf(address)": {
        "details": "See {IERC721-balanceOf}."
      },
      "baseURI()": {
        "details": "Returns the base URI set via {_setBaseURI}. This will be automatically added as a prefix in {tokenURI} to each token's URI, or to the token ID if no specific URI is set for that token ID."
      },
      "getApproved(uint256)": {
        "details": "See {IERC721-getApproved}."
      },
      "isApprovedForAll(address,address)": {
        "details": "See {IERC721-isApprovedForAll}."
      },
      "name()": {
        "details": "See {IERC721Metadata-name}."
      },
      "ownerOf(uint256)": {
        "details": "See {IERC721-ownerOf}."
      },
      "safeTransferFrom(address,address,uint256)": {
        "details": "See {IERC721-safeTransferFrom}."
      },
      "safeTransferFrom(address,address,uint256,bytes)": {
        "details": "See {IERC721-safeTransferFrom}."
      },
      "setApprovalForAll(address,bool)": {
        "details": "See {IERC721-setApprovalForAll}."
      },
      "supportsInterface(bytes4)": {
        "details": "See {IERC165-supportsInterface}. Time complexity O(1), guaranteed to always use less than 30 000 gas."
      },
      "symbol()": {
        "details": "See {IERC721Metadata-symbol}."
      },
      "tokenByIndex(uint256)": {
        "details": "See {IERC721Enumerable-tokenByIndex}."
      },
      "tokenOfOwnerByIndex(address,uint256)": {
        "details": "See {IERC721Enumerable-tokenOfOwnerByIndex}."
      },
      "tokenURI(uint256)": {
        "details": "See {IERC721Metadata-tokenURI}."
      },
      "totalSupply()": {
        "details": "See {IERC721Enumerable-totalSupply}."
      },
      "transferFrom(address,address,uint256)": {
        "details": "See {IERC721-transferFrom}."
      }
    },
    "version": 1
  },
  "userdoc": {
    "kind": "user",
    "methods": {},
    "version": 1
  }
}